:020000040800F2
:1080000080730020CD83000873B200080FA9000818
:1080100053A9000801A60008BDC400080000000024
:1080200000000000000000000000000015830008B0
:1080300075A7000800000000698300082DBC000837
:10804000E7830008E7830008E7830008E783000868
:10805000E7830008E7830008E7830008E783000858
:10806000E7830008E7830008E7830008E783000848
:10807000E7830008E783000839A6000861A6000826
:10808000E783000889A60008E7830008E783000863
:10809000E7830008E7830008E7830008E783000818
:1080A000E7830008E7830008E7830008E783000808
:1080B00019BD0008E7830008E7830008E78300088C
:1080C000E7830008E7830008E7830008E7830008E8
:1080D000E783000881C30008E5C3000849C400081D
:1080E000E783000895B40008E7830008E7830008E9
:1080F000E7830008E7830008E7830008B1A60008CB
:10810000E7830008E7830008E7830008E7830008A7
:10811000B9C200081DC30008E7830008E783000810
:10812000E7830008E7830008E7830008E783000887
:10813000E7830008E7830008E7830008E783000877
:10814000E7830008E7830008E7830008ADC4000860
:10815000E7830008E7830008D9A60008E783000842
:10816000E7830008E7830008E7830008E783000847
:10817000E7830008E7830008E783000800000000A9
:10818000E7830008E783000800F002F800F0B2F887
:108190000AA090E8000C82448344AAF10107DA4562
:1081A00001D100F0A7F8AFF2090EBAE80F0013F002
:1081B000010F18BFFB1A43F00103184714C4010054
:1081C00044C401000A444FF0000C10F8013B13F0C6
:1081D000070408BF10F8014B1D1108BF10F8015B20
:1081E000641E05D010F8016B641E01F8016BF9D113
:1081F00013F0080F1EBF10F8014BAD1C0C1B09D16A
:108200006D1E58BF01F801CBFAD505E014F8016BDB
:1082100001F8016B6D1EF9D59142D6D3704700006D
:108220000023002400250026103A28BF78C1FBD87F
:10823000520728BF30C148BF0B6070476E2900F05D
:108240001E85702900F0D78166291BF02F856529CE
:108250001BF02C8567291BF0298561291BF02885D7
:1082600003681B0A28BF41F08001692900F048819A
:10827000642900F04581752900F042816F2900F0E2
:108280000486782900F0A381E92900F09F85E4297C
:1082900000F09C85F52900F09985EF2900F0018612
:1082A000F82900F0A2810368DB0928BF41F08001B2
:1082B000632900F02085732900F02585E32901F06A
:1082C0001F82F32901F02482002070471FB51BF0A4
:1082D000E8FC01F02DFC0400002000211AF080FED3
:1082E000401C6060002000211AF064FEE0601FBDA9
:1082F00010B510BD01F0EEFB1146FFF7E7FF0CF0E3
:10830000F7F801F0CBFC03B4FFF7F2FF03BC01F078
:108310000FFD00002A4B19680868B0E8F04F80F3A1
:108320000988BFF36F8F4FF0000080F3118870470A
:108330000000000006480068006880F3088862B604
:1083400061B6BFF34F8FBFF36F8F00DF00BF00BF79
:1083500008ED00E0DFF80C00016841F470010160F5
:10836000704700BF88ED00E0EFF30980BFF36F8F27
:10837000134B1A681EF0100F08BF20ED108A20E979
:10838000F04F106008B44FF05F0080F31188BFF326
:108390004F8FBFF36F8F1AF073F94FF0000080F327
:1083A000118808BC19680868B0E8F04F1EF0100F7B
:1083B00008BFB0EC108A80F30988BFF36F8F704755
:1083C00064040020EFF305807047000009488047EF
:1083D00009480047FEE7FEE7FEE7FEE7FEE7FEE7A7
:1083E000FEE7FEE7FEE7FEE704480549034A054BC2
:1083F0007047000061BC000889810008806300208C
:1084000080730020806300200FB41CB5084B06AABF
:108410007B4469460090059800F04BFC0446002020
:10842000694600F059FC20461CBC5DF814FB0000B6
:10843000C50800000FB41CB5084B06AA7B4469466A
:108440000090059800F035FC04460020694600F0D5
:1084500043FC20461CBC5DF814FB0000990800009A
:1084600070B5044685690068C10601D5302600E074
:108470002026C00707D070BDD4E9012130469047BF
:10848000206A401C20626D1EF6D570BD70B5044692
:1084900085690078C00707D170BDD4E9012120208B
:1084A0009047206A401C20626D1EF6D570BD70B5E5
:1084B0000C460546012A05D02878800600D5EA69D1
:1084C000002302E0012305E05B1C934202D2E05C42
:1084D0000028F9D1A869E618C01AA861286A1844CA
:1084E00028622846FFF7BCFF04E0D5E9012114F813
:1084F000010B9047B442F8D32846FFF7C7FF70BD81
:108500002DE9F0410646002410687529314616A56C
:1085100010D000F049FB002802DA404213A507E022
:1085200031688A0701D512A502E0490704D511A5D3
:10853000012401E000F041FB00210A2206F124079A
:1085400009E0B0FBF2FCB0FBF2F302FB1C003030A0
:1085500078541846491C0028F3D123462A46304651
:10856000BDE8F04100F032BB000000002D0000002B
:108570002B00000020000000F0B40D460188090522
:1085800002D5214C7C4402E01F4C7C440E34002177
:1085900000F1240608E002F00F071209E75D42EA45
:1085A00003721B097754491C52EA0307F3D102787E
:1085B0000023120704D5702D06D009B1022311340F
:1085C0002246F0BC00F002BB01231034F8E770B57E
:1085D00004460D462146106800F0EFFA024629468F
:1085E0002046BDE870400023C6E7D21D22F00703F5
:1085F000D3E90023C0E70368126843F02003036057
:108600000823C3610023B7E7E7BA01002DE9F05F53
:10861000894604464FF0000ADFF874B1FB44C0F805
:1086200020A02046E1688847002874D0252806D07D
:10863000D4E901219047206A401C2062F1E700261E
:108640005F462046E16888472028054607DB312D34
:1086500005D2781910F8200C08B10643F1E7B007ED
:1086600001D526F00406C4F81CA00027C4F818A001
:108670002A2D09D0284605F07FFC38B304EB870883
:10868000303DC8F8185019E059F8041B204604EB97
:1086900087029161E1688847012F054618D1E0699A
:1086A000002820DA26F020061DE0D8F8180000EB9C
:1086B000800005EB40003038C8F818002046E1681B
:1086C0008847054605F058FC0028EED1012F0AD056
:1086D0002E2D08D12046E16888477F1C0546022FD1
:1086E00046F02006C4DBA069002803DA404246F0C9
:1086F0000106A061F00701D026F010066C2D0BD00A
:10870000682D09D04C2D39D06A2D35D0742D35D037
:108710007A2D33D016E038E0E1682F4620468847AE
:10872000B842054609D16C2F26D04FF48060E1682D
:10873000064320468847054604E06C2F1AD04FF4C4
:10874000807006430DB3A5F14100192802D82035E9
:1087500046F400664A462946204626604E46FFF704
:108760006DFD80B101280BD0F61D26F0070000F149
:10877000080956E74020E4E78020D8E70020D6E744
:1087800006F104094DE7284652E7206ABDE8F09F4C
:1087900077BA01000FB400B58DB010A9099000910F
:1087A0000B904FF0FF300A9000200C900648784460
:1087B0000690064878446A4607900F9909A800F089
:1087C0008FFB0DB05DF814FB4F070000670700003A
:1087D0002DE9FF5F1D464FF0FF3B91464FF000082B
:1087E0005F46D5E90146A96901987F1C8847296A37
:1087F000824688470028F6D1BAF1FF3F0CD0002E00
:1088000024F4C06419DD600614D5BAF12B0F09D029
:10881000BAF12D0F0ED103E0584604B0BDE8F09F29
:1088200044F48064A96901987F1C8847761E8246BB
:10883000002E02DDBAF1300F03D0B9F1000F26D0BF
:1088400032E0A969761E01987F1C44F400748847C1
:10885000002E824605DDBAF1780F06D0BAF1580F26
:1088600003D0B9F1000F10D01EE0B9F1000F02D013
:10887000B9F1100F18D1A969761E01987F1C24F454
:10888000007488478246102002E0082000E00A2099
:10889000814609E0A96908FB0908761E01987F1C3A
:1088A00044F4007488478246002E05DD4946504650
:1088B00000F002FB0028EDDAE96901988847A0057D
:1088C00002D46FF00100A8E7E00725D1600613D5B8
:1088D000600502D5C8F1000000E0404629680A1D85
:1088E0002A600968220501D5087015E0220701D524
:1088F000088011E008600FE02868011D2960006809
:10890000210502D580F8008006E0210702D5A0F8F5
:10891000008001E0C0F8008038467EE72DE9FF5F67
:108920004FF000089946144646469169D2E901A7DE
:10893000DDF838B001988847054659EA0B0005D0A4
:1089400009E0A1690198761C88470546216A2846F6
:1089500088470028F5D1681C03D05FEACA7005D0AB
:1089600015E04FF0FF3004B0BDE8F09F2068011D16
:108970002160D0F800800AE05FEACA7001D108F8EF
:10898000015BA169761C01987F1E88470546002F70
:108990001ADD681C18D0B9F1000F0DD0E81705EBEF
:1089A000D060421120F01F0059F822102A1A01202D
:1089B00090400142E0D107E0BBF1000FDCD1284636
:1089C000216A88470028D7D0E16901988847BBF120
:1089D000000F07D1002E05DD5FEACA7002D1002129
:1089E00088F80010A068B84203DDBBF1000F03D087
:1089F00017B16FF00100B6E73046B4E7032A40F242
:108A0000308010F0030C00F0158011F8013BBCF130
:108A1000020F624498BF11F801CB00F8013B38BF48
:108A200011F8013BA2F1040298BF00F801CB38BF56
:108A300000F8013B11F0030300F02580083AC0F074
:108A4000088051F8043B083A51F804CBA0E808101C
:108A5000F5E7121D5CBF51F8043B40F8043BAFF34F
:108A60000080D20724BF11F8013B11F801CB48BFA9
:108A700011F8012B24BF00F8013B00F801CB48BFDF
:108A800000F8012B704710B5203AC0F00B80B1E818
:108A90001850203AA0E81850B1E81850A0E8185033
:108AA000BFF4F5AF5FEA027C24BFB1E81850A0E83C
:108AB000185044BF18C918C0BDE810405FEA827C56
:108AC00024BF51F8043B40F8043B08BF7047D2076D
:108AD00028BF31F8023B48BF11F8012B28BF20F80E
:108AE000023B48BF00F8012B704702F0FF0343EA46
:108AF000032242EA024200F002B84FF000020429C9
:108B0000C0F0128010F0030C00F01B80CCF1040CBC
:108B1000BCF1020F18BF00F8012BA8BF20F8022BF0
:108B2000A1EB0C0100F00DB85FEAC17C24BF00F896
:108B3000012B00F8012B48BF00F8012B70474FF0C4
:108B4000000200B5134694469646203922BFA0E89D
:108B50000C50A0E80C50B1F12001BFF4F7AF0907A9
:108B600028BFA0E80C5048BF0CC05DF804EB89009A
:108B700028BF40F8042B08BF704748BF20F8022BDD
:108B800011F0804F18BF00F8012B704770477047F5
:108B9000704710B500F0D4F9006810BD10B5044658
:108BA00000F0CEF9046010BD09684A0501D540B255
:108BB0007047C905FCD500B2704709684A0501D560
:108BC000C0B27047C905FCD580B270472DE9F047A7
:108BD0000D4699469246044600F12408016888062D
:108BE00004D5E06921F01001216000E00120A842D5
:108BF00001DD471B00E00027A1697A1902EB09009B
:108C0000081AA0612078C00602D42046FFF728FC8D
:108C1000002608E0D4E901211AF806009047206AEE
:108C2000401C761C20624E45F4DB2078C0060AD535
:108C30002046FFF715FC06E0D4E9012130209047DB
:108C4000206A401C2062381EA7F10107F4DC07E00F
:108C5000D4E9012118F805009047206A401C2062E1
:108C6000281EA5F10105F3DC2046FFF70FFC207854
:108C7000000602D50220BDE8F0870120FBE711685D
:108C80000268006A530501D508700AE0D30501D5D2
:108C9000088006E0130603D5C217C1E9000200E010
:108CA000086001207047000001694A1C02610878D1
:108CB000704700B58FB0CDE901310021059105491C
:108CC0007944CDE9031011466846FFF79FFC0FB0C9
:108CD00000BD0000E5FFFFFF0A6802F8010B0A6013
:108CE000704710B5436913B1AFF3008001E0FFF79F
:108CF000DEFB012010BD127800F124010A70002271
:108D00004A700122EDE711684FF0FF32E9E70000F9
:108D10002DE9FF5F15468A460446DFF8AC80F8442B
:108D20000027D8E900103E46CDE9001010E03AF8DF
:108D300016106A4602A800F0A9FE411C07D021784F
:108D4000890603D5E269391891420DD80744761C8B
:108D50002078800602D5E069B84205DDAE42E6DB48
:108D60003AF816000028E2D1A069C01BA061204695
:108D7000FFF776FBD8E90010CDE90010002017E0DE
:108D80003AF818106A4602A800F080FEB0F1FF3FE2
:108D900081460BD000250DF1080B05E0D4E9012137
:108DA0001BF8050090476D1C4D45F7D308F10100F5
:108DB000B0428046E4DB206A384420622046FFF758
:108DC00065FBBDE8FF9F00005EB401002DE9F041A6
:108DD0008046D21D22F007020025D2E90002F529C3
:108DE00015A614D0011E72F1000106DA0023D0EBA3
:108DF000030063EB020211A608E0D8F800108B070D
:108E000001D50FA602E0490701D50EA6012511469E
:108E1000002408F1240704E000F096F830323A55B7
:108E2000641C50EA0102F7D12B46324621464046E7
:108E3000BDE8F041FFF7CABE000000002D000000B1
:108E40002B0000002000000030B4002100F12404B9
:108E500008E002F00705D208303542EA4372DB0829
:108E60006554491C52EA0305F3D10468002310A29B
:108E7000250707D5A40600D421B1C46901230DA29A
:108E8000641EC46130BCFFF7A1BE10B50446214684
:108E90001068FFF792FE02462046BDE8104000230E
:108EA000D2E7D21D22F00701D1E90023CCE7000070
:108EB00000000000300000003A2800D2303820F0D6
:108EC0002002412A01D3A2F13700884201D34FF09A
:108ED000FF307047026811441378016018467047EC
:108EE000D1600549794451610449794411620021F6
:108EF0001161114600F010BCEDFFFFFFB9B5000095
:108F0000426842B1016811F8013B23B1521EC0E929
:108F10000012184670470121C160881E70474268E0
:108F20005AB1C368016843B983688B4205D0491EB2
:108F3000521CC0E90012002070474FF0FF3070470C
:108F4000004870471C63002030B5B0F10A024FEAB8
:108F5000900E71F100034EEA817EB0EB0E0061EBE2
:108F600091014FEA101E4EEA017E10EB0E0041EB1C
:108F700011114FEA102E4EEA016E10EB0E0041EB7C
:108F800011214FEA104E4EEA014E10EB0E0041EB5C
:108F90001141401841F100014FEAD00040EA417010
:108FA0004FEAD10110EB80054FEA810444EA907446
:108FB00044EB01046D1944EB0404521BA3414FF030
:108FC000000348BF0A3200D530BD401C41F100010A
:108FD00030BD70472DE9FF4F0C461E464FF0FF375E
:108FE0008BB0D2E90001DDF860800A908A46C1F3B7
:108FF0000A5505B93D46002108464FF00000BAF178
:10900000000F00F4400005DA00EB80004FF440014F
:1090100001EA50004FEA9059B9F1010F00DDB9465D
:109020000A9850EA4A000ED044F61050A5F2FF35D7
:1090300045432F14B8F1000F1ED07542291E1EDDC6
:10904000C9F100021CE0B8F1010F4FF0000001D09F
:10905000302103E0F24305E02154401CB042FBDB29
:1090600030460022002121540B99C1F80880C1E943
:1090700000200FB0BDE8F08FBD1B6D1CDEE74A4637
:1090800000DA694206A800F097FD06AB93E80700F6
:1090900003AB83E8070050460A9900F050FE8DE8C4
:1090A0000700A0F500501F3800900398002D0ADD3E
:1090B00042F21F014A460844002303A90390684670
:1090C00001F0B9F809E0A0F500504A461F38002326
:1090D00003A90390684601F0C3F88DE80700000477
:1090E000000C03D04FF0FF30410800E01046B8F10B
:1090F000000F03D00022009215461EE0751E05D415
:10910000FFF722FF303262556D1EF9D5B3460122BA
:10911000084302D000227F1C04E02078302801D1CF
:1091200000227F1E002A099784D01DE0112D07DA46
:10913000FFF70AFF303262556D1C50EA0102F5D18B
:10914000084302D00098C8B10EE00021681E05E077
:10915000235C625C63542254401E491C8142F7DB4D
:10916000AB46A81B401E0990002004F80B000B988A
:10917000099AC0F80880C0E9002B7AE711264FF061
:10918000000857E72DE9F04F88460446D21D22F02B
:10919000070191B0D1E90001CDE90A0103F0ADF971
:1091A00002460B98C00F01D02D2007E020688107F0
:1091B00001D52B2002E0202101EAC000032A0990FA
:1091C00001D0072A05DB03464146204600F0B4FCE7
:1091D0000BE12078800601D5E06900E00620B8F1B7
:1091E000650F814606D0B8F1660F18D0B8F1670F49
:1091F00070D131E00020B9F1110F009001DB112393
:1092000001E009F101030AAA01A90CA8FFF7E2FE97
:10921000DDE90C70002609F10105834647E00120D5
:109220004B4600904FF000470AAA01A90CA8FFF78F
:10923000D1FEDDE90DB00C995D46002610B909F1AB
:1092400001000D18B9EB050003D4C0F1FF3609F198
:109250000105A5EB09002BE0B9F1010F01DA4FF090
:1092600001090020B9F1110F0090484601DD1123DA
:1092700000E003460AAA01A90CA8FFF7ABFEDDE94E
:109280000C704D4600268346207800070AD4AB4573
:1092900000DA5D4601A8012D04DD411911F8011C19
:1092A000302907D04F4502DA17F1040F04DA012004
:1092B00082460FE06D1EEEE7002F02DCED1B3E4400
:1092C00003E0781CA84200DD7D1CB81B00F1010AF8
:1092D0004FF000472078000703D4AA4501DB4FF088
:1092E000FF3A0021B7F1004F0DF143088DF843100C
:1092F00024D002202B23002F01DA7F422D230A21C4
:10930000021EA0F1010000DC5FB197FBF1FC97FBAE
:10931000F1F201FB1C7C17460CF1300C08F801CD72
:10932000EEE7A8F1010003702188090501D5452168
:1093300000E06521A0F1010800F8011C09980FA9BF
:10934000A1EB0807FF1D00B10120411901EBEA70F4
:10935000A1693844081A401EA0612078C00602D4D2
:109360002046FFF77DF8099828B1D4E901219047FC
:10937000206A401C20622078C00622D52046FFF7D4
:109380006FF81EE0002E04DBB34502DD01A8805D0E
:1093900000E03020D4E901219047206A401C20627F
:1093A000761CAAF101005FEA000A0AD100F0C0FBB6
:1093B000C0680168405CD4E901219047206A401CE4
:1093C0002062281EA5F10105DCDC07E0D4E90121BB
:1093D00018F8010B9047206A401C2062381EA7F144
:1093E0000107F3DC2046FFF751F8032011B041E6F6
:1093F0002DE9F04F04460D46D21D22F0070089B03A
:10940000D0E900974846394603F077F80246F80F4E
:1094100001D02D2307E02068810701D52B2302E02E
:10942000202101EAC0038DF820300BB1012000E0BB
:109430000020032A824601D0072A04DB2946204661
:1094400000F07AFB3FE12078800601D40D2500E092
:10945000E569C7F30A560D2D49DA00214FEA175B7B
:1094600008464FF00000002F00F4400007DA00EB40
:1094700080004FF4400100EBD07001EA60008115DC
:10948000012901DD4FF0FF3100224FEA850CBCF1CC
:10949000180F06D31346ACF118004FF08052C240AB
:1094A00003E04FF4801323FA0CF30CF10C0CBCF125
:1094B000200F04D3ACF1200C09FA0CF001E007FAFC
:1094C0000CF000294FF0004801DD18B90FE00ED173
:1094D00040450CD319EB02095F4121B9404502D147
:1094E0009F4329EA0209BBEB175F00D0761C208856
:1094F000000502D57B48784402E07A487844193860
:1095000008AA302302F80A30037C0AF10101002E78
:109510000AF1020A53546A4602DC4FF0300101E0BE
:109520004FF031014FF001088DF8001002D0A6F283
:10953000FF3603E059EA470100D06B4E002D02DCF4
:109540002178090704D54FF002082E218DF801106B
:10955000C44600210BE0C7F303433F01C35C491C31
:109560006D1E02F80830052908F1010801DA002D06
:10957000F1DC00210CE000EB1973491C1B786D1E17
:10958000082902F808304FEA091908F1010801DA40
:10959000002DF0DC21688B0602D516E0A8F1010849
:1095A000E04505DD02EB080313F8013C302BF5D054
:1095B000B8F1000F09DD02EB080313F8013C2E2B74
:1095C00003D1090701D4A8F10108002D05DD3E21D2
:1095D00002F808106D1E08F10108407C002E02F808
:1095E000080008F1010804DA2D20764202F808008C
:1095F00002E02B2002F808000A214FF47A7086421C
:1096000008F101080BDB96FBF0F3303302F8083069
:1096100096FBF0F308F1010800FB136601E0642EED
:109620000CDB642096FBF0F3303302F8083096FB35
:10963000F0F308F1010800FB136601E00A2E06DBD7
:1096400096FBF1F0303002F8080008F1010896FBB3
:10965000F1F001FB1060303002F80800A16908F158
:10966000010808EB050202EB0A00081AA061207845
:10967000C00602D42046FEF7F3FE216A08AE01EBD5
:109680000A00206204E0D4E9012116F8010B90479A
:10969000BAF1010AF7D22078C00602D52046FEF7BB
:1096A000DFFE6E4609E016F8010B3E280FD0D4E924
:1096B00001219047206A401C2062B8F10108F2D2D3
:1096C0002046FEF7E3FE09B00320BDE8F08F206AD4
:1096D0002844206203E0D4E90121302090476D1E28
:1096E000EBD3F8E7C9AD010002FCFFFF10B54369F9
:1096F00013B1AFF3008001E0FFF70AFB012010BDBA
:10970000128800F1240182840022C2840122EDE744
:1097100011684FF0FF32E9E72DE9F34F4FF0000AEF
:109720000C4656468DB001200C9001F10C000B90B8
:1097300062690B9801219047051E2DD0252D2CD054
:10974000216A8847C0B162690B9801219047216A5C
:1097500088470028F7D16269411E0B98904700E0C6
:10976000761CA1690D988847216A88470028F7D19F
:10977000E1690D988847DBE7A1690D988847A84201
:10978000074601D1761CD3E7E1690D9888477F1C15
:1097900002D1BAF1000F6FD06CE162690B9800271B
:1097A0003D46394690472A2804D162690B98012129
:1097B00090470125DFF8D08262690B98012190471C
:1097C000A0F130010A290AD24745E5DC07EB870101
:1097D00000EB4107303FDFD445F01005ECE7E90628
:1097E00001D46FF000476C280AD04C2814D06828A8
:1097F00015D06A280DD074281CD07A281AD01DE004
:1098000062690B98012190476C2802D045F004054D
:1098100014E045F002050DE045F020050AE062691C
:109820000B9801219047682802D045F0080505E013
:1098300045F4006562690B9801219047C4E901571E
:1098400065283DD019DC58287AD00CDC452837D063
:1098500004DC252826D041289ED131E046282FD08F
:10986000472899D12CE05B2877D0612828D063283D
:109870007CD0642823D15AE0F7E06F2848D008DC78
:1098800066281DD067281BD0692821D06E2816D1E4
:1098900027E0702845D0732868D0752847D07828ED
:1098A0000DD14DE0A1690D988847252805463FF464
:1098B00069AFE1690D9888476D1C3FF46AAFD9E044
:1098C0000D9923466A466FF00100AFF30080C6E0B1
:1098D00045F0400023464FF000026060A80736D4F0
:1098E0003EE0E8077FF447AF2068011D2160006873
:1098F000290501D506701BE7290701D5068017E762
:10990000A90703D5F117C0E9006111E706600FE769
:1099100045F0400023464FF008026060A80716D4C7
:109920001EE040F60E0125EA0100606016E045F0F9
:10993000400023464FF00A026060A80707D40FE0FA
:1099400045F040006060A80708D5234610220D9915
:109950006FF00100AFF3008081E007E010222346A2
:109960000D996FF00100FEF733FF78E04FF000092A
:1099700063284F46C8464B46CB4602D05B2807D0EB
:1099800039E02079C00601D40120A060012732E02F
:109990006269D4F80CB00B98012190475E2807D17A
:1099A0004FF0010949466269D4F80CB00B98904712
:1099B000216939B900210A4603AB43F82120491C2B
:1099C0000829FADBD8B3216949B308F101086269B3
:1099D0000B98012190475D28F4D1B9F1000F09D00F
:1099E000002003A951F82020D24341F82020401C38
:1099F0000828F7DB03AB2069002820794FEA407084
:109A00001ED05B462246CDF80080CDE901970D9926
:109A100000286FF0010020DAAFF300801FE0C117CB
:109A200003AA00EBD1614B1121F01F0102EB83026D
:109A3000411A13680120884003431360C7E719E007
:109A40000D99224600286FF00100009702DAAFF36B
:109A5000008004E0FEF762FF01E0AFF30080002821
:109A60000ADA401C06D10C9820B14FF0FF300FB03D
:109A7000BDE8F08F5046FAE7E90701D10AF1010A83
:109A8000064400200C9053E6CCCCCC0C70B51646A6
:109A90000C46054600F044F8036893F801010128DC
:109AA00006D0FF2C0FD8185D68B101202C7070BD56
:109AB000D3F807013246214603F207130344284630
:109AC000BDE8704018474FF0FF3070BD0048704748
:109AD0001C6300207546FFF7F9FFAE460500694696
:109AE000534620F00700854618B020B5FEF77CFCF1
:109AF000BDE820404FF000064FF000074FF000088F
:109B00004FF0000B21F00701AC46ACE8C009ACE80F
:109B1000C009ACE8C009ACE8C0098D467047000038
:109B200010B500F005F8001D10BD00BFB594010090
:109B3000004870473C6300202DE9F0411F46044671
:109B400003260168072A01F4006004DB08B116A5AA
:109B500005E016A503E008B115A500E015A521F064
:109B600010002060A069C01EA0610FB1401EA0615E
:109B70002046FEF775FC4FB1D4E9012138469047E5
:109B8000206A401C2062C01C206206E0206AFAE7BE
:109B9000D4E9012115F8010B9047761EF8D2204632
:109BA000FEF774FCBDE8F0814E414E006E616E0020
:109BB000494E4600696E66002DE9F047814616461B
:109BC0008AB0354878440DC88DE80D003248784495
:109BD000801C03AC0DC884E80D0041F69B3008449E
:109BE000372190FBF1F290FBF1F5A5F1800501FB27
:109BF00012041B3C02D56442012000E00020DFF883
:109C000098A080460027FA44AAF1BE0A0EE0E007B9
:109C10000AD03246684607EB470101230AEB81016F
:109C200000F01EFB8DE8070064107F1C002CEED1B5
:109C3000194F7F44AE3F19E0E80715D007EB041039
:109C40000DF1180A90E80E008AE80E00C068F04294
:109C500001D1981908903246012306A903A800F003
:109C6000FFFA03AB83E807006D10641C002DE3D1FD
:109C70004FF0010332466946B8F1000F03A802D045
:109C800000F0D9FA01E000F0EBFAC9E90001C9F8E7
:109C900008200AB0BDE8F0878CA7010010B5044683
:109CA000AFF300802046BDE81040FEF72CBB00005B
:109CB0004FF0013C50F8042B51F8043B9A4221D15B
:109CC000A2EB0C03934313EACC1317D150F8042BE7
:109CD00051F8043B9A4215D1A2EB0C03934313EACB
:109CE000CC130BD150F8042B51F8043B9A4209D104
:109CF000A2EB0C03934313EACC13DBD04FF000002C
:109D0000704700BFD01A01BAB1FA81F101F0180111
:109D100022FA01F0CB40C1F12001DBB2C0B2C01A7F
:109D20002CFA01F3D11A914311EAC311E6D170471D
:109D300001491820ABBEFEE72600020070475FEA2B
:109D4000400C08BF91F0000F4FEA8C234FEAC1226C
:109D500043EA51514FEA1C5018BF00F5F0404FEA5A
:109D6000300018BF41F000415FEA6C5C00F02980D0
:109D7000BCF1FF3F08BF40F080407047130C06BFA6
:109D800012044FF0100C4FF0000C130E04BF12021F
:109D90000CF1080C130F04BF12010CF1040C930F0B
:109DA00004BF92000CF1020CD30F04BF52000CF15F
:109DB000010C11464FF00002A0F11F00A0EB0C00B7
:109DC000704711F0004F08BF704731F000413FF479
:109DD000D5AF0B0C06BF09044FF0100C4FF0000C70
:109DE0000B0E04BF09020CF1080C0B0F04BF090194
:109DF0000CF1040C8B0F04BF89000CF1020CCB0F8B
:109E000004BF49000CF1010CCCF12003A0EB0C00C5
:109E100022FA03F302FA0CF241EA030100F1010015
:109E2000704720F07F4C80EA030023F07F47ACEBC3
:109E3000070303F57C5300F0004003F1FF032DE915
:109E400080494FEA154B09B44FEA144325EA0B4EFB
:109E500024EA03480FF2042606EB132749083E784C
:109E60005FEA320203FB0667C7F5000707FB06F649
:109E70004FEA54374FEAD64606F1020607FB066C56
:109E8000CCF1005C4FEA1C472CEA074C07FB06F4B8
:109E90000CFB06F504EB15464FEA961634BF00207E
:109EA0004FF000404FEAD13706FB07FC4FEA1C4C4D
:109EB0000CFB0BF7D21B03FB0CF761EB07010CFB50
:109EC0000EF7B0EB074072EB17420CFB08F734BFFC
:109ED000A2EB0742B2EB074261EB17414FEA0C4499
:109EE0004FEA910706FB07FC4FEA1C4C0CFB0BF7F3
:109EF000B0EBC74072EB573203FB0CF734BFA2EB59
:109F0000C742B2EBC74261EB57310CFB0EF7B0EB27
:109F1000C70072EB57720CFB08F734BFA2EBC70205
:109F2000B2EBC70261EB5771039F4FEA816141EACF
:109F3000921104EBCC044FEAD1374FEA826206FB60
:109F400007FC42EA90124FEA80604FEA1C4C0CFB7F
:109F50000BF7D21B03FB0CF761EB07010CFB0EF7B1
:109F6000B0EB074072EB17420CFB08F734BFA2EBD3
:109F70000742B2EB074261EB17414FEA8C554FEABB
:109F8000910704EB9C2406FB07FC4FEA1C4C0CFBDE
:109F90000BF7B0EBC74072EB573203FB0CF734BF43
:109FA000A2EBC742B2EBC74261EB57310CFB0EF795
:109FB000B0EBC70072EB57720CFB08F734BFA2EB93
:109FC000C702B2EBC70261EB577115EB4C254FEAA4
:109FD000816141EA92114FEA82624FEAD13742EA47
:109FE000901206FB07FC44F100044FEA80604FEA40
:109FF0001C4C0CFB0BF7D21B03FB0CF761EB0701AE
:10A000000CFB0EF7B0EB074072EB17420CFB08F7A6
:10A0100034BFA2EB0742B2EB074261EB174115EBED
:10A020001C154FEA813141EA92414FEA823242EAFD
:10A0300090424FEA80304FEA0C7644F1000448EA3F
:10A0400003434EEA0B484FF0000EB2EB080C71EBE5
:10A05000030724BF624639464EEB0E0E4FF0000B4D
:10A060000018524149414BEB0B0BB2EB080C71EB62
:10A0700003077BF1000B24BF624639464EEB0E0E00
:10A080004FF0000B0018524149414BEB0B0BB2EB68
:10A09000080C71EB03077BF1000B24BF62463946C5
:10A0A0004EEB0E0E51EA020718BF46F0010616EB02
:10A0B0000E7655F1000254F1000103D5BDE8890187
:10A0C000BDE80088BDE88901BDE80048B6195241E5
:10A0D00041EB0101A3F10103704780807F7E7D7C0D
:10A0E0007B7A7978777676757473727171706F6E2A
:10A0F0006E6D6C6C6B6A6A696868676666656464D5
:10A10000636362616160605F5F5E5E5D5D5C5C5B5E
:10A110005B5A5A59595858575756565555555454CD
:10A12000535352525251515050504F4F4F4E4E4D2B
:10A130004D4D4C4C4C4B4B4B4A4A4A494949484877
:10A1400048474747474646464545454444444443B7
:10A1500043434342424242414141002B9C4630D45A
:10A1600077002BD01CB54FEA370703B44FF010002F
:10A170004FF01001BAF1000F06D0BCF1000FDCBFA8
:10A1800040F0080040F008014FF000000FBCBDE8AF
:10A1900010400BF1010BBBF1010F08BF5FEA17077D
:10A1A00022BF12F1010211F101014FF0004143F110
:10A1B000000300F0004043EA00007047F9D357085D
:10A1C000D0E746EA064613F1400F4FEA16461FDD78
:10A1D00013F1200FDFBF16430A46002120335B42F4
:10A1E000BED0C3F1200746EA064602FA07F74FEA57
:10A1F000164646EA0706C3F1200722FA03F201FADF
:10A2000007F721FA03F14FF0000342EA0702A7E73C
:10A2100046EA020646EA06464FEA164646EA0106BE
:10A22000BCBF46EA0646360C4FF000034FF0000272
:10A230004FF0000194E72DE9804C9A46934670B4A4
:10A2400091E8380007C831EA400C48BF34EA430CB3
:10A2500003D5FFF7E6FDFFF780FFF0BCBDE8008CFB
:10A260002DE9804C9A46934670B491E8380007C8AF
:10A2700010F0804F08BF13F0804F03D100F005F8B5
:10A28000FFF76BFFF0BCBDE8008C20F07F4780EA51
:10A29000030023F07F4C07EB0C03A3F57C5300F085
:10A2A0000040A3F1FE0392F0000F00F0B38095F0A0
:10A2B000000F00F077802DE901494FEA11404FEA85
:10A2C000144621EA004800FB06FC24EA064708FB86
:10A2D00006F607FB08F800FB07F718EB06484CEBFF
:10A2E000164C4FEA124B18EB07484FEA15464CEB59
:10A2F000174022EA0B4E0BFB06FC25EA06470EFB35
:10A3000006F607FB0EFE0BFB07F71EEB064E4CEBAB
:10A31000164C4FF000061EEB074E4CEB174B18EB9C
:10A320000B0840F1000018EB0E0B58EB000840F151
:10A3300000008F1A4FF000013CBFC943661B14BFD9
:10A34000B5EB040C00213CBFC943F61B4FEA174490
:10A350004EEA8E0E27EA04454FEA1C4704FB0762CB
:10A360002CEA074C05FB07F70CFB05F604FB0CFC7D
:10A3700016EB074642EB174216EB0C4642EB1C422B
:10A380001BEB060658EB0202414146EA9E0601D548
:10A39000BDE80189B619524141EB0101A3F1010366
:10A3A000BDE801894FEA14454FEA114724EA054602
:10A3B00021EA074C05FB07F406FB07F70CFB06F147
:10A3C00005FB0CFC11EB074144EB17444FEA124725
:10A3D00011EB0C4144EB1C4422EA074C05FB07F24D
:10A3E00006FB07F70CFB06F605FB0CFC16EB074615
:10A3F00042EB174216EB0C4642EB1C456A1854F12F
:10A40000000148BF7047B619524141EB0101A3F169
:10A410000103704795F0000F37D04FEA11424FEA21
:10A42000144721EA024624EA074C02FB07F106FB27
:10A4300007F70CFB06F402FB0CFC14EB074441EBA2
:10A4400017414FEA154714EB0C4441EB1C4125EA38
:10A45000074C02FB07F506FB07F70CFB06F602FBB1
:10A460000CFC16EB074645EB174516EB0C4645EB87
:10A470001C42121951F1000148BF7047B6195241F0
:10A4800041EB0101A3F1010370474FEA14454FEA84
:10A49000114724EA054621EA074C05FB07F106FBB4
:10A4A00007F70CFB06F24FF0000605FB0CFC12EB65
:10A4B000074241EB174112EB0C4251EB1C4148BFE4
:10A4C0007047921841EB0101A3F101037047F0B509
:10A4D00003460C460021002502B10CB90020F0BD56
:10A4E00087E0585D5E2834D00EDC5B2855D006DC52
:10A4F0000C2825D0242814D0402873D116E05C28DD
:10A5000042D05D286ED15AE07C2861D004DC5F28FF
:10A5100011D07B2866D125E07D282CD07E2861D102
:10A5200044E002270846491C175460E0002708460B
:10A53000491C17545BE011270846491C175456E084
:10A540001B270846491C17540A270846491C17545C
:10A550004DE01B270846491C175414270846491C80
:10A56000175444E01B270846491C1754282708465F
:10A57000491C17543BE01B270846491C1754292740
:10A580000846491C175432E01B270846491C17543B
:10A590002F270846491C175429E01B270846491C49
:10A5A00017543C270846491C175420E01B2708462F
:10A5B000491C17543D270846491C175417E01B2710
:10A5C0000846491C17543E270846491C17540EE0FC
:10A5D0001B270846491C175440270846491C175496
:10A5E00005E0FFE75F5D0846491C175400BF00BF48
:10A5F0006D1C201EA4F101047FF473AF08466EE7C2
:10A6000000BFFEE730B503460C4618460021214640
:10A610000FE0051245EA0025A8B20D786840C0F3A6
:10A620000315684080EA0035A8B2C5B280EA45103B
:10A63000491C9142EDD930BD10B5202203210748B5
:10A6400005F01DF840B120220321044804F0F8FF72
:10A650000321024804F030FF10BD000000600240FA
:10A6600010B520220421074805F009F840B1202246
:10A670000421044804F0E4FF0421024804F01CFF14
:10A6800010BD00000060024010B5202206210748DE
:10A6900004F0F5FF40B120220621044804F0D0FF69
:10A6A0000621024804F008FF10BD000000600240CF
:10A6B00010B520220721074804F0E1FF40B1202215
:10A6C0000721044804F0BCFF0721024804F0F4FE0F
:10A6D00010BD00000060024010B52022072107488D
:10A6E00004F0CDFF40B120220721044804F0A8FF68
:10A6F0000721024804F0E0FE10BD000000640240A3
:10A7000030B5084C63680021074C2468074DB4FB42
:10A71000F5F404FB00F202E0024C6468E11A914295
:10A72000FAD330BD001000E0B804002040420F0012
:10A730000748006840F0807005490860002005491E
:10A7400048600846006840F001000860704700005B
:10A75000FCED00E0001000E000B502460023107898
:10A7600001F0AEFE03461B01507801F0A9FE034440
:10A77000184600BD7047F0B504460B460021002581
:10A7800004B10BB90020F0BD74E0605D58B102283F
:10A7900004D011280CD01B2865D10EE024270846D0
:10A7A000491C175464E040270846491C17545FE0D1
:10A7B0005F270846491C17545AE0681C0546205C70
:10A7C0002F282AD008DC0A280FD0142813D02828D4
:10A7D00017D029283FD11AE03C2824D03D2828D082
:10A7E0003E282CD0402836D12FE00C270846491CA3
:10A7F00017545B1E00BF5E270846491C17545B1E9A
:10A800002FE07B270846491C17545B1E29E07D2753
:10A810000846491C17545B1E23E05C270846491C68
:10A8200017545B1E1DE05B270846491C17545B1E2E
:10A8300017E07E270846491C17545B1E11E05D2770
:10A840000846491C17545B1E0BE07C270846491C30
:10A8500017545B1E05E06D1E675D0846491C1754C2
:10A8600000BF00BF04E0675D0846491C175400BFE5
:10A8700000BF6D1C181EA3F1010386D15054084679
:10A8800081E72DE9F04105460E460027B8462846E7
:10A8900013F036F98046002404E0285DB04200D170
:10A8A0007F1C641C4445F8D33846BDE8F08130B5C0
:10A8B000044600200FE025682D789D4202D02568CF
:10A8C0002D7805B909E025682D7801F8015B256828
:10A8D0006D1C2560401C9042EDDB00BF00250D7013
:10A8E00030BD014600204A68121D4A604A68B2F530
:10A8F000803F00D301207047014600204A683E3265
:10A900004A604A68B2F5C83F00D30120704700BFD3
:10A91000FEE701460A2291FBF2F302FB13120A231F
:10A9200091FBF3F302EB0312D0B2704702460B46E1
:10A93000002100BF09E0505C392802DC505C30285F
:10A9400001DA00207047481CC1B29942F3DB0120B4
:10A95000F8E700BFFEE710B54FF412214FF40320D3
:10A9600005F0B4F810BD0000F8B5002000900024F8
:10A97000002500261B4948604FF40320086021E0B1
:10A9800000208DF803008DF802008DF801008DF88D
:10A99000000014490968134A526888186A4604215D
:10A9A00005F0ACF8684615F03AFB0446601C00B9A7
:10A9B00009E00C4800F052FC012802D1012625468E
:10A9C00001E02546DCE700BF012E07D10020054944
:10A9D00048604FF403200860FFF7BDFF02480560A0
:10A9E000F8BD0000C8020020C002002038B50446AF
:10A9F00000250020009025466946284615F0FCFAFF
:10AA00000C484068B0F5803F04D3FFF7A4FF002056
:10AA10000849486007490968064A526888186A4622
:10AA2000042105F085F803484068001D014948608D
:10AA300038BD0000C802002010B54FF422214FF4A9
:10AA4000132005F08FF810BDF8B500200090002409
:10AA5000002500261B4948604FF41320086021E0C0
:10AA600000208DF803008DF802008DF801008DF8AC
:10AA7000000014490968134A526888186A4604217C
:10AA800005F03CF8684615F0CAFA0446601C00B9A7
:10AA900009E00C4800F0E2FB012802D1012625461E
:10AAA00001E02546DCE700BF012E07D10020054963
:10AAB00048604FF413200860FFF7BEFF024845606E
:10AAC000F8BD0000D0020020C002002038B50446C6
:10AAD00000250020009025466946284615F08CFA8E
:10AAE0000C484068B0F5803F04D3FFF7A5FF002075
:10AAF0000849486007490968064A526888186A4642
:10AB0000042105F015F803484068001D014948601C
:10AB100038BD0000D00200200020064948604FF4F4
:10AB2000032008600020044948604FF413200860A7
:10AB300070470000C8020020D002002010B500BFFE
:10AB400014F0F2F8012803D014F0EEF8032810D125
:10AB500000235A1E19460F48006817F033FE0EA056
:10AB600000F068FC00231A4619460A48006817F0EE
:10AB700009FF00BF00200C4981F8010281F80002A2
:10AB80000A4948600860FFF7C7FFFFF7E4FEFFF7D8
:10AB900053FF10BD100000205B6D73675D20636C78
:10ABA0006561720D0A000000782B0020C0020020B1
:10ABB0000148006870470000C0020020014840685A
:10ABC00070470000C002002010B50020074981F83E
:10ABD000010281F800024FF400720021034809F0DD
:10ABE0003CFDFFF7C1FEFFF72FFF10BD782B0020C3
:10ABF00070B505460C4615B10CB1FF2C01DD0020E7
:10AC000070BD324890F80002022804DA2F4890F80C
:10AC10000102022822DB00202C4981F8010281F880
:10AC2000000200BF14F080F8012803D014F07CF873
:10AC3000032810D100235A1E19462548006817F032
:10AC4000C1FD24A000F0F6FB00231A461946204857
:10AC5000006817F097FE00BF0020D1E71B4991F86C
:10AC600000121A4A02EB0121481CFF22002109F0C0
:10AC7000F4FC164991F80012144A02EB0121481C19
:10AC80002246294609F0D8FC104991F800120F4AD3
:10AC900002EB01210C70104690F80002401CC0B27B
:10ACA000114681F80002022802DB002081F8000230
:10ACB000064890F80002054991F80112884202D135
:10ACC000024800F0F1F901209AE70000782B0020FB
:10ACD000100000205B6D73675D20696E70757420D5
:10ACE0006661696C65640D0A0000000070B5C0B053
:10ACF00004464FF480716846FDF721FF00250026C9
:10AD0000634890F80002022804DA614890F80102D2
:10AD1000022823DB00205E4981F8010281F800024D
:10AD200000BF14F001F8012803D013F0FDFF032841
:10AD300010D100235A1E19465648006817F042FDEC
:10AD400055A000F077FB00231A46194651480068C9
:10AD500017F018FE00BF002040B070BD4C4890F8BE
:10AD600000024B4991F80112884255D0484890F8AA
:10AD70000102474901EB00200078FF2828DD002070
:10AD800081F8010281F8000200BF13F0CDFF012815
:10AD900003D013F0C9FF032817D100235A1E194608
:10ADA0003C48006817F00EFD394890F80102384A17
:10ADB00002EB002001783EA000F03CFB00231A4685
:10ADC00019463448006817F0DDFD00BF0020C3E7D6
:10ADD0002F4890F801022E4B03EB00200278184612
:10ADE00090F8010203EB0020411C204609F024FCEE
:10ADF000274890F80102264901EB00200678084612
:10AE000090F80102401CC0B281F8010202283CDB2C
:10AE1000002081F8010238E0684600F07BF8054622
:10AE20000DB9002098E79DF80000FF2824DD00BF41
:10AE300013F07AFF012803D013F076FF032816D110
:10AE400000235A1E19461348006817F0BBFC9DF8F2
:10AE500002309DF801209DF800101BA000F0EAFAD6
:10AE600000231A4619460B48006817F08BFD00BFF7
:10AE7000FFF764FE00206FE79DF800200DF101014F
:10AE8000204609F0D9FB9DF80060F0B264E70000AD
:10AE9000782B0020100000205B6D73675D206F75BC
:10AEA00074707574206661696C65640D0A00000039
:10AEB0005B6D73675D2072616D206C656E206572DD
:10AEC000722025640D0A00005B6D73675D20666C5F
:10AED000617368206C656E206572722025642C2574
:10AEE000782C25780D0A000070B504460D46002622
:10AEF0004FF41D20B0EB042F00D270BD4FF453204F
:10AF000000EB04262A464FF48071304604F042FEDE
:10AF100000BFF2E770B505463F4C40F6C41120680B
:10AF200088421CD900BF13F0FFFE012803D013F0A4
:10AF3000FBFE032811D100235A1E1946374800682A
:10AF400017F040FC36A0216800F074FA00231A467E
:10AF500019463248006817F015FD00BF57E040F66B
:10AF6000C411606888421CD900BF13F0DDFE0128BF
:10AF700003D013F0D9FE032811D100235A1E19461D
:10AF80002648006817F01EFC2DA0616800F052FAF8
:10AF900000231A4619462148006817F0F3FC00BF49
:10AFA00035E0D4E90001884201D1002070BD294676
:10AFB0006068FFF799FF6068401C606040F6C4114C
:10AFC0006068884201D3002060606068FFF77EFD02
:10AFD00000BF13F0A9FE012803D013F0A5FE03283B
:10AFE00012D100235A1E19460C48006817F0EAFBDC
:10AFF0001BA0D4E9001200F01DFA00231A461946DE
:10B000000648006817F0BEFC00BF0120CEE7FFF73E
:10B0100095FD0020CAE70000C002002010000020BB
:10B020005B6D73675D20666C617368207265616437
:10B030002065727220696E5B25645D0D0A00000058
:10B040005B6D73675D20666C617368207265616417
:10B0500020657272206F75745B25645D0D0A0000B7
:10B060005B6D73675D2067736D20726561643A2064
:10B070002564202025640D0A0000000070B50446F8
:10B080000D4600264FF41D20B0EB442F00D270BDBA
:10B090004FF4532000EB44262A464FF4007130460B
:10B0A00004F092FD00BFF2E770B50546514C5248DE
:10B0B0000078012801D1002070BD40F6C41120683D
:10B0C000884203D8207800F00100E0B100BF13F0FF
:10B0D0002BFE012803D013F027FE032811D10023F3
:10B0E0005A1E19464548006817F06CFB44A02168B9
:10B0F00000F0A0F900231A4619464048006817F0EE
:10B1000041FC00BF71E040F6C411606888421CD960
:10B1100000BF13F009FE012803D013F005FE032839
:10B1200011D100235A1E19463448006817F04AFB13
:10B130003BA0616800F07EF900231A4619462F48AB
:10B14000006817F01FFC00BF4FE02168480829463F
:10B15000FFF794FF2068801C206040F6C41120682F
:10B16000884201D300202060D4E9001088421AD31D
:10B17000D4E90010401A102815D2207800F00F00F2
:10B1800088B9217901F00F01C1F11001606808440C
:10B19000606040F6C4116068884201D3002060609E
:10B1A0006068FFF793FC2068FFF720FC00BF13F0F6
:10B1B000BBFD012803D013F0B7FD032812D10023F3
:10B1C0005A1E19460D48006817F0FCFA1CA0D4E975
:10B1D000001200F02FF900231A46194607480068AC
:10B1E00017F0D0FB00BF012066E7FFF7A7FC0020A7
:10B1F00062E70000C0020020B00100201000002023
:10B200005B6D73675D20666C617368207361766542
:10B210002065727220696E5B25645D0D0A00000076
:10B220005B6D73675D20666C617368207361766522
:10B2300020657272206F75745B25645D0D0A0000D5
:10B240005B6D73675D2067736D20736176653A206F
:10B250002564202025640D0A00000000014600201E
:10B260004A68121D4A604A68B2F5803F00D3012047
:10B270007047704770B504460D4600235A1E294694
:10B28000204617F09FFA70BDFEB507460C461546DE
:10B290001E4600940195029600231A4669463846D8
:10B2A00017F070FBFEBD00002DE9FF4107460C467C
:10B2B00015461E4600200090019402950396002337
:10B2C0006A4601A9384617F0E5FB009838B14FF0FF
:10B2D000805004490860BFF34F8FBFF36F8FBDE804
:10B2E000FF81000004ED00E038B5044617F0C4FC0F
:10B2F00000902146684617F09FF838BD1FB5002022
:10B30000009000244BE0C4EBC4002B4901EB80000B
:10B310008069E8B3C4EBC40001EB80008069401E83
:10B32000C4EBC401244A02EB81018861C4EBC40070
:10B33000114601EB8000806950BBC4EBC40001EBF7
:10B340008000007C012809D1C4EBC40001EB80001F
:10B350004069C4EBC40102EB81018861C4EBC40005
:10B36000154901EB800040680190C4EBC40001EB7B
:10B37000800080680290C4EBC40001EB8000C068CC
:10B380000390C4EBC4010C4A52F82100002300E0F2
:10B3900003E06A4601A917F07DFB601CC4B2082CCB
:10B3A000B1DB009838B14FF0805004490860BFF31A
:10B3B0004F8FBFF36F8F1FBD9434002004ED00E06A
:10B3C000F0B505AC70CCC4EBC407DFF844C04CF852
:10B3D0002700C4EBC4070CEB87077960C4EBC407F4
:10B3E0000CEB8707BA60C4EBC4070CEB8707FB6064
:10B3F000C4EBC4070CEB8707BD61C4EBC4070CEBBF
:10B4000087077D61C4EBC4070CEB87073E74F0BD72
:10B41000943400200021C0EBC002054B03EB8202F4
:10B420009161C0EBC00203EB8202516170470000E2
:10B43000943400200FB408B503A800900020009AAF
:10B44000029902F0A1FD01B05DF814FB70B504464D
:10B450000B461646002200253CB133B1184603EBDB
:10B46000D0714910A3EB410101B170BD00220DE084
:10B47000A05C01F025F805462D01511C605C01F02F
:10B480001FF8054406EB52010D70921C9A42EFD34F
:10B4900000BFEAE710B54FF4807010F063F970B1A7
:10B4A0004FF4807010F056F94FF4003004F0C8FAF1
:10B4B00003480068401C0249086005F0D1F910BD3E
:10B4C000040300200148006870470000D8020020F3
:10B4D000F0B505460F46002400263048B7FBF0F4CF
:10B4E0002F480088A04237D02D490C8040F2B27618
:10B4F0000EE0304608F0BEFF30B1B4F5B77F02D39E
:10B50000A4F5B77402E006E0A4F26D14701C86B2D4
:10B51000B4F5B67FEDD800BF2E80002615E0288850
:10B5200008F0A8FF30B1012E04D11D2C01D31D3C21
:10B5300009E00CE01B48805DA04203D81948805DFB
:10B54000241A00E003E0701C86B21C2CE7D200BF76
:10B55000701CA870601CE8701048B7FBF0F100FB8D
:10B5600011744FF46160B4FBF0F028714FF4616026
:10B57000B4FBF0F100FB11403C21B0FBF1F068712D
:10B580004FF46160B4FBF0F100FB11403C21B0FBD3
:10B59000F1F201FB1200A8710120F0BD8051010001
:10B5A000DC020020143E02080149086070470000D8
:10B5B000D80200202DE9F84F06460024378896F877
:10B5C000028096F8039096F804A096F805B0B0793A
:10B5D000009040F2E270874203DB40F6330087427E
:10B5E00002DD0020BDE8F88F40F2B2750AE028467F
:10B5F00008F040FF10B11C48044401E01B4804441B
:10B60000681C85B2BD42F2DB002511E01848405DA0
:10B6100040F2A32110FB01F004EBC014384608F0FF
:10B6200029FF18B1012D01D112480444681C85B2CC
:10B63000A8F10100A842E9DCA9F1010040F2A32130
:10B64000484304EBC014CAEB4A10C0EB0A2004EBD9
:10B650000014CBEB0B1004EB80040098044420464C
:10B66000FFF7A2FF0120BDE70085E2018033E10181
:10B67000143E02088051010010B50446D4E90001CF
:10B68000FDF73BFA00BF00202061E06000BF10BD65
:10B690000146C8680A69801A70470146C8680A6985
:10B6A000801A70470146C8680A69801A704710B549
:10B6B0000446581E184008B1002010BD2160636088
:10B6C000A26000202061E0600120F6E72DE9F0474C
:10B6D000044688461746D4F80090204600F059F8F2
:10B6E00010B10020BDE8F08700BF2046FFF7DAFF69
:10B6F00061680D1A2E466168491EE06808402844BA
:10B700006168884205D36168491EE0680840616845
:10B710000D1A761BBD4201DA284600E03846054680
:10B720007F1BBE4201DA304600E038460646BF1BAA
:10B730006168491EE0680840A16800FB0199A068A3
:10B7400000FB05F241464846FDF758F9E0682844F9
:10B75000E0606168491EE06808402268A16800FB5B
:10B760000129A06805FB0088A06800FB06F241469D
:10B770004846FDF743F9E0683044E060A819B1E7B6
:10B780000146C8680A69904201D101207047002033
:10B79000FCE710B504462046FFF784FF6168884245
:10B7A00001DB012010BD0020FCE72DE9F047044635
:10B7B00088461746D4F800902046FFF7E1FF10B105
:10B7C0000020BDE8F0872046FFF76CFF06460546DF
:10B7D0006168491E2069084028446168884205D391
:10B7E0006168491E2069084061680D1A761BBD42D8
:10B7F00001DA284600E0384605467F1BBE4201DAE2
:10B80000304600E038460646BF1B6168491E206985
:10B810000840A16800FB0199A06800FB05F24946B9
:10B820004046FDF7EBF82069284420616168491E15
:10B83000206908402268A16800FB0129A06805FB77
:10B840000088A06800FB06F249464046FDF7D6F89E
:10B85000206930442061A819B3E7000070B50446A0
:10B860000D4616461021104804F0ACFD032012F0DE
:10B870003DF8C4F3074012F039F8C4F3072012F082
:10B8800035F8E0B212F032F804E0FF2012F02EF8A2
:10B8900028706D1C301EA6F101018EB2F5D1102169
:10B8A000014804F091FD70BD0000024070B50446EF
:10B8B0000D461646210B200B00F032F83246294681
:10B8C000204600F0EDF870BD70B504460D461646F2
:10B8D00000F098F81021114804F074FD022012F0D5
:10B8E00005F8C4F3074012F001F8C4F3072011F083
:10B8F000FDFFE0B211F0FAFF03E0287811F0F6FF47
:10B900006D1C301EA6F101018EB2F6D11021034844
:10B9100004F05AFD00F0AAF870BD000000000240DB
:10B920002DE9F04104460E46B4F5806F02D2B6F51B
:10B93000806F01D3BDE8F081B44200D9FAE7B44288
:10B940001DD1250300F05EF800F090F810212C487E
:10B9500004F038FD202011F0C9FFC5F3074011F0B5
:10B96000C5FFC5F3072011F0C1FFE8B211F0BEFF1B
:10B970001021234804F028FD00F078F8DAE7301BA6
:10B9800040F2FF31884211D100F03CF800F06EF82F
:10B9900010211B4804F016FDC72011F0A7FF10214D
:10B9A000174804F011FD00F061F8C3E7301B00F107
:10B9B000010827461FE03D0300F024F800F056F888
:10B9C00010210F4804F0FEFC202011F08FFFC5F37A
:10B9D000074011F08BFFC5F3072011F087FFE8B295
:10B9E00011F084FF1021064804F0EEFC00F03EF850
:10B9F0007F1CA8F10108B8F1000FDCD100BF99E766
:10BA00000000024010B51021054804F0DBFC0620C0
:10BA100011F06CFF1021024804F0D6FC10BD0000AC
:10BA20000000024010B5002410210F4804F0CAFCA9
:10BA3000902011F05BFF002011F058FF002011F062
:10BA400055FF002011F052FFFF2011F04FFF44EA94
:10BA50000024FF2011F04AFF04431021024804F0A3
:10BA6000B3FC204610BD00000000024010B50024C9
:10BA700010210A4804F0A6FC052011F037FF00BF92
:10BA8000FF2011F033FF044604F001000028F7D135
:10BA90001021024804F098FC10BD00000000024094
:10BAA0002DE9F04106460F4614460025F0B2C0F5D8
:10BAB0008075AC4200DC254612E02A463946304605
:10BAC000FFF702FFAC4200D10BE02F442E44601B75
:10BAD00084B2B4F5807F02DD4FF4807500E0254626
:10BAE000EBE700BFBDE8F0812DE9F041204C214893
:10BAF0000078012801D1BDE8F081002534E0207AEA
:10BB000002282ED16068401E606050BB00BF13F059
:10BB10000BF9012803D013F007F903281AD10023E9
:10BB20005A1E19461448006816F04CFE16F0D8FD4F
:10BB30000646002015F0D6FF074633463A4629460A
:10BB40000EA0FFF777FC00231A4619460A48006842
:10BB500016F018FF00BF01200649087012F066FFBA
:10BB6000C9E70C34681CC5B2042DC8DB00BFC2E7AE
:10BB7000EC3100201C030020100000205B25645DD8
:10BB80002A2A2A2564203A2025642A2A2A0D0A0D09
:10BB90000A00000070B503460D4616460024002238
:10BBA00003B105B970BD324600240DE0195D0811DE
:10BBB00000F097FC02F8010B195D01F00F0000F096
:10BBC00090FC02F8010B641CAC42EFD30020107013
:10BBD00000BFE7E730B5002325E00478302C07DB11
:10BBE0000478392C04DC04782407240E0C7004E05B
:10BBF0000478E41F2407240E0C70401C0478302CB9
:10BC000008DB0478392C05DC0C780578303D2C43B2
:10BC10000C7004E00D780478373C25430D70401C0F
:10BC2000491C9C1CA3B29342D7DB30BD10B500BFAA
:10BC30005F20EFF3118180F31188BFF34F8FBFF3C3
:10BC40006F8F00BF17F01EF818B14FF080500349F6
:10BC50000860002080F3118800BF10BD04ED00E0F3
:10BC600008B52948006840F4700027490860274853
:10BC7000006840F001002549086024480830006849
:10BC800040F080002149083108600020009002E067
:10BC90000098401C00904CF2503100988842F7D335
:10BCA0001A480830006840F09000184908310860D0
:10BCB0000020009002E00098401C00904CF25031AF
:10BCC00000988842F7D3002010490831086000BF6F
:10BCD0000E480830006800200028F9D10B480068A1
:10BCE0000B490840094908600A48091D0860081FF7
:10BCF000006820F48020091F0860002003490C31EF
:10BD0000086013F07BFD08BD88ED00E000380240BC
:10BD1000FFFFF6FE1030002410B50121880713F054
:10BD2000BCFE28B10121880713F0B4FE00F072FABE
:10BD300010BD0000F0B589B007460C46202101A8CF
:10BD4000FCF7FDFE002501208DF8040000208DF891
:10BD5000050001ADAD1C22460DA12846FCF76AFB8B
:10BD6000284611F0CDFE401C05440AA208A1284631
:10BD7000FCF760FB204611F0C3FE083086B2334664
:10BD80000A2206A101A80BF023F909B0F0BD0000BA
:10BD9000257300006F637465740000004F4B000052
:10BDA0002DE9FC5F83460C4617464FF00008C1465C
:10BDB00000200090019000268246002594F800A003
:10BDC000BAF1010F06D0BAF1020F04D0BAF1030F95
:10BDD00073D101E0AAE1A9E13D1FA078E17840EA32
:10BDE0000126012E6AD1D348007801282CD100BF4A
:10BDF00012F09AFF012803D012F096FF032810D109
:10BE000000235A1E1946CC48006816F0DBFCCBA074
:10BE1000FFF710FB00231A461946C748006816F0C2
:10BE2000B1FD00BF0020C34908703B20CA4908701B
:10BE300014F002F9012014F089F904230A22C7A1A1
:10BE4000C7480BF0C5F871E10220C6490880103DD3
:10BE50001022211DC44808F0EFFBDFF80C8308F125
:10BE60000D094A4641460020FEF7CCFBBF49088039
:10BE70004046C0890988884221D000BF12F054FF93
:10BE8000012803D012F050FF032814D100235A1EBA
:10BE90001946A948006816F095FCB348C189B34813
:10BEA0000288B3A0FFF7C6FA00231A461946A24833
:10BEB000006816F067FD00BF38E136E153E0AA489C
:10BEC00040881030C0F3080030B1A748D0F8020015
:10BED0001030400A401C04E0A348D0F802001030A3
:10BEE000400AAC49088000BF12F01EFF012803D0B1
:10BEF00012F01AFF032812D100235A1E19468E4849
:10BF0000006816F05FFCA3480188A3A0FFF792FA2F
:10BF100000231A4619468848006816F033FD00BF12
:10BF2000012014F013F903F087FEA9B204F1140202
:10BF30004FF4804003F096FE05F580409C49086070
:10BF400094480088401E9349088004F11408404634
:10BF50002844A0F101094A4641460020FEF752FB61
:10BF60008249088028E07F480088B04223D17D487C
:10BF70000088401C7B490880A9B2221D8C480068BB
:10BF800003F070FE8A4800682844894908608148A7
:10BF90000088401E7F49088004F10408201D2844C1
:10BFA000A0F101094A46414670480088FEF72AFB85
:10BFB0006E49088000E0B9E03B206749087014F042
:10BFC0003BF8002066494870042008703012C870A1
:10BFD0008E707048008800287DD175480068A0F5F3
:10BFE00080456148D0F80200A8422DD000BF12F071
:10BFF0009BFE012803D012F097FE032814D10023E2
:10C000005A1E19464C48006816F0DCFB5648D0F81A
:10C0100002102A4667A0FFF70DFA00231A461946B8
:10C020004548006816F0AEFC00BF0120FFF7F2F9AA
:10C0300000200AF0F9FE022012F0A2FC28220021C2
:10C04000634808F00AFB71E04748C08847490988FF
:10C0500088422DD000BF12F067FE012803D012F0F5
:10C0600063FE032814D100235A1E19463248006883
:10C0700016F0A8FB3C48C1883C48028855A0FFF751
:10C08000D9F900231A4619462B48006816F07AFCA5
:10C0900000BF0120FFF7BEF900200AF0C5FE022014
:10C0A00012F06EFC28220021494808F0D6FA3DE043
:10C0B00001208DF800008DF80100F0B28DF802002B
:10C0C00030128DF803006A4604214FF4583003F013
:10C0D000E3FC484800E021E005F0A6FF13F042F839
:10C0E00000BF12F021FE012803D012F01DFE03282C
:10C0F00010D100235A1E19460F48006816F062FB43
:10C100003DA0FFF797F900231A4619460A48006830
:10C1100016F038FC00BF12F089FC05E004230A2267
:10C120000EA10F480AF054FF00E000BF00BFBDE8B9
:10C13000FC9F0000BD000020100000205B666F74B3
:10C14000615D2072657374617274207265717565CA
:10C1500073740D0A00000000B80000204F4B00006F
:10C16000BF000020CC000020C81D0020D00000200F
:10C170005B666F74615D2068656164204352432093
:10C180006572725B253034782020253034785D0D5F
:10C190000A000000CE0000205B666F74615D2066BF
:10C1A0007720626167735B25645D0D0A0000000003
:10C1B000C80000205B666F74615D206461746C650B
:10C1C0006E206572725B2564202025645D0D0A0077
:10C1D000901D00205B666F74615D2066772043527E
:10C1E00043206572725B2530347820202530347806
:10C1F0005D0D0A00182200205B666F74615D206C83
:10C200006F6164206170702066696E6973680D0AE1
:10C210000D0A000010B500241C480068401C1B4992
:10C220000860084600680A21B0FBF1F201FB120029
:10C2300018B904F0F7F804F013FB1448006814214F
:10C24000B0FBF1F201FB120008B900F021F80F4831
:10C2500000683221B0FBF1F201FB120008B904F0D2
:10C26000DDF90A4800686421B0FBF1F201FB12001D
:10C2700040B9FFF727F90446641C2046FFF794F9FC
:10C2800012F054FFFFF73AF810BD000050030020F1
:10C2900010B504480078C0F3400008B904F0E0FA93
:10C2A00010BD000024030020612804DB7A2802DC92
:10C2B000A0F12001C8B2704710B51449144814F019
:10C2C00049FA10B3124800681148001D00680221A5
:10C2D000104803F0ACFBC0F5806402210D4803F068
:10C2E000EBF8202202210B4803F0AAF94FF48062F8
:10C2F0000221084803F093FB0221064803F0ECF802
:10C30000A2B20549032003F09BF810BD040304000A
:10C31000004C004000600240C255002010B5144996
:10C32000144814F017FA08B312480068114840681E
:10C330000021114803F07BFBC0F5806400210E480A
:10C3400003F0BAF8202200210B4803F079F94FF4EA
:10C3500080620021084803F062FB0021064803F0D8
:10C36000BBF8A2B20549042003F06AF810BD000032
:10C37000040304000050004000600240C45D00203F
:10C3800010B51449144814F0E5F908B312480068D0
:10C39000114840680221114803F049FBC0F5806450
:10C3A00002210E4803F088F8202202210B4803F0F6
:10C3B00047F94FF480620221084803F030FB022164
:10C3C000064803F089F8A2B20549002003F038F8C6
:10C3D00010BD00000403040000100140006402408E
:10C3E000BC3D002010B51449144814F0B3F908B34B
:10C3F000124800681148001D00680521104803F02C
:10C4000016FBC0F5806405210D4803F055F8202285
:10C4100005210B4803F014F94FF480620521084808
:10C4200003F0FDFA0521064803F056F8A1B20548CD
:10C4300005F0E8FC10BD00000403040000440040C7
:10C4400000600240BE45002010B51449144814F0A5
:10C4500081F908B3124800681148001D00680121E5
:10C46000104803F0E4FAC0F5806401210D4803F0A0
:10C4700023F8202201210B4803F0E2F84FF48062F8
:10C480000121084803F0CBFA0121064803F024F803
:10C49000A1B205480AF08CF910BD000004030400A5
:10C4A0000048004000600240C04D002010B5024826
:10C4B00015F0E8F910BD00007435002000BFFEE75C
:10C4C0000146612903DBA1F15700C0B27047412941
:10C4D00003DBA1F13700C0B2F8E7A1F13000C0B230
:10C4E000F4E701460A2904DB01F00F003730C0B23F
:10C4F000704701F13000C0B2FAE703B4019841007F
:10C50000009850EAC12018BF04204A0D18BF40F01F
:10C51000010040F2FF72B2EB515F08BF40F0020031
:10C52000012808BF052002B070470000000000008D
:10C5300070B5C1482DED020B2DED0E8B82B0119D13
:10C5400025F000449FEDBEDB9FEDBFEB84423EDB58
:10C55000A4F140511098A1F17F6108430FD0BC486D
:10C56000844202DC28D1109830B39DED100B02B04C
:10C57000BDEC0E8B02B0BDE8704001F0B9BC9DED82
:10C58000100B53EC1D2B51EC100B17F023F89DED05
:10C59000100B41EC180B53EC1E2B51EC100B17F049
:10C5A00019F853EC182B16F03DFD41EC100B02B0BE
:10C5B000BDEC0E8B02B070BD0120FCF7EFFA02B0AB
:10C5C000BDEC0E8B02B0BDE8704001F0A5BCA148E7
:10C5D0009FEDA18B844256DA9DED100BB4F1795F8B
:10C5E0000ADA51EC100BFFF788FF042808BF01F0AE
:10C5F000B3FC9DED100BDAE753EC102B51EC100B54
:10C6000016F0E8FF41EC190B95480621B0EE490AF7
:10C61000F0EE690A784401F03FFB53EC192B51EC22
:10C62000100B16F0D7FF41EC1A0B8E48B0EE490AFA
:10C63000F0EE690A0421784401F02EFB53EC192B2B
:10C6400051EC100B16F0C6FF53EC182B16F0EAFC59
:10C6500041EC100B51EC1A0B53EC102B16F09EFD15
:10C66000CDE900019DED000B53EC102B9DED100B5F
:10C6700051EC100B16F0AEFF9DED101B53EC112B7F
:10C6800016F0D0FCD2E09DED100B51EC100B03F036
:10C69000DDF953EC182B17F0D1F89FED730BCDE9B2
:10C6A000000153EC102B9DED000B51EC100B16F01C
:10C6B00091FF41EC190B6E480621B0EE490AF0EEED
:10C6C000690A784401F0E8FA53EC192B51EC100B8D
:10C6D00016F080FF41EC1B0B6648B0EE490AF0EE05
:10C6E000690A0421784401F0D7FA53EC192B51EC74
:10C6F000100B16F06FFF53EC182B16F093FC41EC67
:10C700001C0B51EC190B11F044F941EC180B5A4871
:10C710009FED5BABA04222DC53EC1C2B51EC1B0BBE
:10C7200016F03CFDCDE900019DED000B51EC180B1E
:10C7300053EC102B16F04EFF53EC182B16F072FC36
:10C7400053EC1A2B16F046FF53EC1D2B17F04EF945
:10C7500053EC1E2B17F072F841EC100B5FE08DEDDF
:10C76000008B002000909DED000B51EC180B53EC5A
:10C77000102B16F057FC9DED000B41EC1E0B53ECFB
:10C78000102B51EC100B16F025FF53EC192B17F062
:10C7900055F853EC1E2B16F001FD41EC190B53EC30
:10C7A0001C2B51EC1B0B16F0F9FC41EC1B0B53EC52
:10C7B0001A2B51EC190B16F00DFF53EC1D2B17F033
:10C7C0003DF841EC190B53EC1A2B51EC180B16F0F9
:10C7D00001FF53EC1B2B16F0FDFE53EC192B17F049
:10C7E00005F99DED000B41EC180B53EC1A2B51ECA5
:10C7F000100B16F0EFFE9FED249B53EC192B17F056
:10C800001DF841EC100B51EC180B53EC102B17F0EA
:10C81000EDF853EC192B17F011F841EC100B002D2B
:10C820003FF7C5AE51EC100B16F0F0FB41EC100BCE
:10C83000BDE60000000000000000F03F0000000026
:10C84000075C143326A6913C182D4454FB21F93F74
:10C850000000F07F0000E03F000000000000F03F1B
:10C86000907A01009E7A0100000000000000E03F85
:10C87000E2790100F07901003333EF3F000000005E
:10C880000000000000000040182D4454FB21E93F47
:10C8900010B52F499FED2C1B2DED020B84B0059890
:10C8A00020F000408842D8BF9DED040B2DDD2949C2
:10C8B000884209D1049840B94FF00100FCF76EF9A5
:10C8C00001F02AFB06B010BD05DB9DED040B01F065
:10C8D0000FFB06B010BD68469DED040B00F008FF8D
:10C8E00010F0030004BF9DED021B9DED000B0CD06A
:10C8F00001280ED09DED021B9DED000B022817D0E4
:10C90000012001F045FA06B010BD01F00DF906B0A6
:10C9100010BD9DED021B9DED000B012001F038FACA
:10C9200051EC100B16F072FB06B041EC100B10BD71
:10C9300001F0FAF851EC100B16F068FB06B041EC70
:10C94000100B10BD000000000000000000000000FF
:10C95000FB21E93F0000F07F2DE9F04D2DED040BA8
:10C960002DED0E8B96B0DDE92550279CDDF890A0CB
:10C9700025F0004624F00048BAF1000F14BF012151
:10C98000002101EB4502FC4953184A1093422AD377
:10C99000002814BF0123002303EB44030B44F74991
:10C9A0008B4220D358EA00019FEDF59B76D0DFF84B
:10C9B000D8B35D4503D1BAF1000F05D188E0BAF1D3
:10C9C000000F08BF002100D0012101EB450111F546
:10C9D000001F08D8002814BF0121002101EB4401E9
:10C9E00011F5001F0BD99DED261B9DED240B16B0F4
:10C9F000BDEC0E8B04B0BDE8F04D01F083BA00270A
:10CA0000002DBCBFE149884521DAE1498845A8BF2E
:10CA100002271CDAC3451ADCDE4901EB2851142930
:10CA200008DDC1F1340220FA02F101FA02F2824279
:10CA30000DD108E058B9C1F1140228FA02F101FA47
:10CA400002F2424503D101F00101C1F1020756EAA9
:10CA50000A0124D1002C22DA002D18BF022F01D0A8
:10CA6000012F0AD00220FCF799F816B0BDEC0E8B0E
:10CA700004B0BDE8F04D01F023BA0220FCF78EF8B7
:10CA800001F01EFA51EC100B16F0C0FA41EC100B3D
:10CA900016B0BDEC0E8B04B0BDE8F08D18E09FED34
:10CAA000BEAB9FEDBF8B002871D1B848804522D125
:10CAB00005F1804010F5801008BFBAF1000F07D0D3
:10CAC000B3450ADC002CA8BF9DED260BE0DA0DE093
:10CAD000B0EE490AF0EE690ADAE7002C06DA9DEDBD
:10CAE000260B51EC100B16F091FA6FE0AE4878442B
:10CAF00090ED000BCCE7D8454DD1002C48DA2EB193
:10CB000086423AD1BAF1000F42D126E0BAF1000FC5
:10CB100013D00220FCF742F801F00EFA8DED020B63
:10CB20009DED240B8DED000B10EE900A039961F33F
:10CB30001E0003909DED020BAAE78DED02AB9DED6B
:10CB4000240B1AEE901A10EE900A8DED000B61F393
:10CB50001E0003909DED020B9AE78DED028B9DED7B
:10CB6000240B18EE901A10EE900A8DED000B61F375
:10CB70001E0003909DED020B8AE709DA9DED240B60
:10CB800051EC190B53EC102B16F008FB1EE020E0C3
:10CB90009DED240B7CE786421BDAB4F1804F0DD06B
:10CBA000A4F10050B0F1FF5013D1002D11DB9DED29
:10CBB000240B51EC100B10F0ECFE07E09DED240B64
:10CBC00053EC102B51EC100B00F0C2BC41EC100BDD
:10CBD0005EE79DED240B51EC100B02F037FFBAF12C
:10CBE000000FCDE90E0142D19FED710B46B3A6F1C6
:10CBF000E040B0F17F600CD05E4538D1002D00DA06
:10CC0000A7B3022F0CBF01204FF0FF3016F07BFCC2
:10CC1000DCE7002D01DD002C0DDA002D01DD002CFC
:10CC20001FDB002D16DA002C14DB012F08BF9FED4F
:10CC3000620B3FF42DAFB0EE4A0AF0EE6A0A27E726
:10CC4000022F18BF002D0CD0012F0AD1002DFFF6A6
:10CC50001FAF06E0002DB8BF002C08DA012F3FF40B
:10CC600017AFB0EE480AF0EE680A11E71BE00120AA
:10CC700000EBE57050EA070115D0791EB0EE498A45
:10CC8000F0EE698A084308BF9FED4D8B4E480025A2
:10CC9000804570DD4D494E48884514DDB0420DDBBE
:10CCA000002C19DB2FE00120FBF778FF16B0BDEC5C
:10CCB0000E8B04B0BDE8F04D01F02EB9B34502DC97
:10CCC000002C09DC1FE0864202DA002C1BDA03E0AC
:10CCD0005E452BDD002C16DD0220FBF75FFF01F027
:10CCE0002BF98DED020B53EC1A2B51EC180B16F0AF
:10CCF00071FCCDE900010399019861F31E000390D6
:10CD00009DED020BC4E60220FBF748FF01F024F979
:10CD100010EE901A18EE900A8DED020B8DED008B3F
:10CD200061F31E0003909DED020BB1E69DED0E0B2D
:10CD300053EC192B51EC100B16F058FE9FED260BFF
:10CD4000CDE9080153EC102B9DED080B51EC100BB5
:10CD500016F040FC9FED221B53EC112B16F06EFDDC
:10CD60009DED081B53EC112B16F034FC9FED1E1BA0
:10CD700053EC112B3CE08CE0FFFF1F00FFFF0F0086
:10CD8000000000000000F03F0000F03F0000F07FD6
:10CD90000000404301FCFFFF000000000000F07FA6
:10CDA0000000000000000000C67601000000000046
:10CDB0000000000000000080000000000000F0FF04
:10CDC000000000000000F0BF0000E0410000F04360
:10CDD000FFFFEF3F00000000000000000000D03F18
:10CDE000555555555555D53F000000000000E03F12
:10CDF00016F024FD9DED080B41EC1A0B53EC102BA3
:10CE000051EC100B16F0E6FB53EC1A2B16F0E2FB7C
:10CE100041EC1A0B9FEDFE0B53EC102B9DED080B14
:10CE200051EC100B16F0D6FB41EC1B0B9FEDFA0BEF
:10CE300051EC1A0B53EC102B16F0CCFB41EC1A0BF7
:10CE40009FEDF70B53EC102B9DED080B51EC100BE5
:10CE500016F0C0FB53EC1A2B16F0C8FD41EC1A0B70
:10CE600051EC1B0B53EC1A2B16F0DCF80690CDE9B5
:10CE700006519DED060B53EC1B2B51EC100B16F0DD
:10CE8000B5FD53EC1A2B16F0D9FC41EC100B00F059
:10CE9000A1B90020B6F5801F0EDA9FEDE30B53EC2D
:10CEA000102B9DED0E0B51EC100B16F093FBCDE902
:10CEB0000E016FF034000E4600EB2650A0F2FF3753
:10CEC000C6F31300DA4940F07F6646F040568842C8
:10CED000D8BF002408DDD7498142C8BF012403DC44
:10CEE0000024A6F580167F1CD348784400EBC400CC
:10CEF0000F9690ED00CB9DED0E0B53EC1C2B51ECDF
:10CF0000100B16F073FD9DED0E0B41EC1B0B53EC5B
:10CF10001C2B51EC100B16F085F841EC100B51EC6A
:10CF2000190B53EC102B16F039F941EC1D0B51EC99
:10CF30001B0B53EC1D2B16F04DFB41EC1A0BBF489D
:10CF40008DED10AB7844109590ED000B4FF0005034
:10CF500040EA660000EB84408DED080B00F50020F0
:10CF600009909DED080B53EC1C2B51EC100B16F0A7
:10CF70003DFD9DED0E1B53EC112B16F05FFC41ECBB
:10CF8000100B53EC102B9DED100B51EC100B16F009
:10CF900021FB9DED080B41EC1C0B53EC102B9DED80
:10CFA000100B51EC100B16F015FB53EC1B2B16F06D
:10CFB00045FC53EC1C2B16F019FD53EC1D2B16F001
:10CFC00009FB41EC1C0B53EC1A2B51EC1A0B16F01D
:10CFD00001FB41EC1B0B9A480621B0EE4B0AF0EE28
:10CFE0006B0A784400F058FEB0EE401AF0EE601A7A
:10CFF000B0EE41DAF0EE61DA53EC1B2B51EC1B0B77
:10D0000016F0E8FA53EC1D2B16F0E4FA9DED100B28
:10D0100041EC1B0B53EC1A2B51EC100B16F002F8E1
:10D0200053EC1C2B16F0D6FA53EC1B2B15F0FAFF21
:10D030009DED100B41EC1B0B53EC102B51EC100B26
:10D0400016F0C8FA41EC1D0B9FED7FEB53EC1E2B45
:10D0500015F0E8FF53EC1B2B15F0E4FF0890CDE929
:10D0600008519DED080B53EC1E2B51EC100B16F0E4
:10D07000BDFC53EC1D2B16F0B9FC53EC1B2B16F02A
:10D08000DDFB9DED080B41EC1D0B53EC102B9DEDD2
:10D09000100B51EC100B16F09DFA41EC1B0B53ECEE
:10D0A0001A2B51EC1D0B16F095FA9DED080B41EC77
:10D0B0001A0B53EC102B51EC1C0B16F08BFA53ECA3
:10D0C0001A2B15F0AFFF41EC1A0B51EC1B0B53EC74
:10D0D0001A2B15F0A7FF0C90CDE90C519DED0C0B10
:10D0E00053EC1B2B51EC100B16F080FC53EC1A2B5D
:10D0F00016F0A4FB41EC1B0B9FED550B53EC102BD2
:10D100009DED0C0B51EC100B16F064FA41EC1A0B70
:10D110009FED510B51EC1B0B53EC102B16F05AFAF0
:10D1200041EC1B0B9FED4E0B53EC102B9DED0C0BAC
:10D1300051EC100B16F04EFA53EC1B2B15F072FF4E
:10D1400041EC100B4848784400EBC40090ED001B04
:10D1500051EC100B53EC112B15F064FF41EC1B0B41
:10D16000384616F0D0F9CDE9080153EC1B2B51ECF1
:10D170001A0B15F057FF41EC100B3C48784400EBBC
:10D18000C40090ED00CB51EC100B53EC1C2B15F0B0
:10D1900049FF9DED081B53EC112B15F043FF069042
:10D1A000CDE906519DED080B53EC102B9DED060BC0
:10D1B00051EC100B16F01AFC53EC1C2B16F016FC5D
:10D1C00053EC1A2B16F012FC53EC1B2B16F036FB0B
:10D1D00041EC100B9DED261B53EC102B8DED001B2D
:10D1E00000959DED260B51EC100B16F0F3F99DED1B
:10D1F000000B41EC1A0B53EC102B9DED260B51EC60
:10D20000100B16F0F3FB9DED061B53EC112B2FE0DA
:10D21000000000604715F73FFE822B654715F73F7A
:10D2200044DF5DF80BAE543E0000000000004043B8
:10D230008E9803007AB60B000A720100707201002A
:10D2400042710100000000000000000000000840E2
:10D25000000000E009C7EE3FFD033ADC09C7EE3FDE
:10D26000F5015B14E02F3EBECE6F0100886F010018
:10D2700016F0B0F953EC1A2B15F0D4FE9DED060B09
:10D2800041EC1A0B53EC102B9DED000B51EC100BE5
:10D2900016F0A0F9CDE90C019DED0C0B51EC1A0B29
:10D2A00053EC102B15F0BEFECDE902010C46AA4945
:10D2B0008C422FDB611A084318D19DED0C0B53EC07
:10D2C000102B9DED020B51EC100B16F08FFB41EC77
:10D2D0001B0B9FEDA30B51EC1A0B53EC102B15F00D
:10D2E000A1FE53EC1B2B16F073FA2DD20220FBF794
:10D2F00055FC00F021FE10EE901A18EE900A8DED0C
:10D30000020B8DED008B61F31E0003909DED020B6F
:10D31000FFF7BEBB944A24F00041914214D39349D5
:10D32000214408437FF4EFAC9DED0C0B53EC102B24
:10D330009DED020B51EC100B16F058FB53EC1A2B21
:10D3400016F046FA7FF6DFAC24F000408849894A9F
:10D35000002601EB205182422BDA481C4FF4801149
:10D3600021FA00F02044844AC0F30A517A44A1F221
:10D37000FF3192ED000B814A8DED080BCA4020EA87
:10D380000202C0F3130040F48010C1F1140120FA2E
:10D3900001F60992002CB8BF76429DED080B53ECC4
:10D3A000102B9DED0C0B51EC100B16F01FFBCDE973
:10D3B0000C019DED0C0B51EC1A0B53EC102B15F0DE
:10D3C00031FE9FED6F0B0890CDE9085153EC102B07
:10D3D0009DED080B51EC100B16F0FCF841EC1B0B0B
:10D3E0009FED690B53EC102B9DED080B51EC100BCE
:10D3F00016F0F0F89DED0C0B41EC1C0B53EC102BD0
:10D400009DED080B51EC100B16F0F0FA53EC1A2BB3
:10D4100016F014FA9FED5E1B53EC112B16F0DAF8A0
:10D4200053EC1C2B15F0FEFD41EC1A0B51EC1B0BC1
:10D4300053EC1A2B15F0F6FDCDE902019DED020B20
:10D4400053EC1B2B51EC100B16F0D0FA53EC1A2BAB
:10D4500016F0F4F99DED020B41EC1A0B53EC102B76
:10D4600051EC100B16F0B6F8CDE908014A489DEDD5
:10D47000080B0521784400F00FFC9DED081B51ECD2
:10D48000100B53EC112B16F0A5F89DED021B53EC7D
:10D49000112B16F0D3F9CDE906019DED020B53ECEB
:10D4A0001A2B51EC100B16F095F853EC1A2B15F0C3
:10D4B000B9FD9FED3B0B41EC1A0B53EC102B9DED8E
:10D4C000060B51EC100B16F091FA9DED060B41EC9A
:10D4D0001B0B53EC102B9DED020B51EC100B16F0B7
:10D4E00079F853EC1B2B15F059FE53EC1A2B16F060
:10D4F0007DFA9DED021B53EC112B16F077FA53ECDD
:10D50000192B16F09BF9CDE9020101EB065001152C
:10D510000029C8BF039015DC9DED020B324651EC8B
:10D52000100B16F0F9FBFEF7E8FF042808BF00F027
:10D5300013FD32469DED020B51EC100B16F0ECFB87
:10D54000CDE902019DED020B51EC180B53EC102BB1
:10D5500016F040F8FFF73ABB0000904000000000D2
:10D56000FE822B654715973C00CC904000346F3FFE
:10D5700001FCFFFF0000E03F486E0100FFFF0F00CD
:10D5800000000000432EE63F396CA80C615C20BE11
:10D59000EF39FAFE422EE63FE06C01000000000089
:10D5A000000000000000004010B52F499FED2C1B2B
:10D5B0002DED020B84B0059820F000408842DCBFBE
:10D5C00000209DED040B32DD2849884209D10498E2
:10D5D00040B94FF00100FBF7E1FA00F09DFC06B006
:10D5E00010BD05DB9DED040B00F082FC06B010BD04
:10D5F00068469DED040B00F07BF810F0030011D09D
:10D60000012818D09DED021B9DED000B02281AD0B9
:10D6100000F08AFA51EC100B15F0F8FC06B041EC62
:10D62000100B10BD9DED021B9DED000B012000F0C5
:10D63000AFFB06B010BD9DED021B9DED000B00F091
:10D6400073FA06B010BD012000F0A2FB51EC100BE4
:10D6500015F0DCFC06B041EC100B10BD0000000022
:10D660000000000000000000FB21E93F0000F07F07
:10D6700000B52DED048BB0EE409AF0EE609A83B0C9
:10D6800051EC190B16F0E6F841EC180B18EE100AE5
:10D6900018EE901A8DED008B002818BF012008436A
:10D6A00020F00040C0F17F6000F1E040C00F14D0D6
:10D6B00019EE101A19EE900A8DED009B002918BF83
:10D6C0000121084320F00040C0F17F6000F1E040FC
:10D6D000C00F04BF0120FBF761FAB0EE480A03B0A7
:10D6E000F0EE680ABDEC048B00BD000000000000F5
:10D6F0002DE9F14F04462DED020B2DED088B8AB07C
:10D700009FEDE70B80ED020B139EE74826F00045E6
:10D7100085420ADC9DED120B002084ED000B0AB05F
:10D72000BDEC088B03B0BDE8F08FE0489FEDE0ABA7
:10D730009FEDE1BBA84247DDE14F9FEDE39B9FEDED
:10D74000E48B9DED120B53EC1A2B51EC100B002EB9
:10D750001CDD16F04BF941EC100BBD4208D053EC28
:10D760001B2B51EC100B16F041F9C4E900010BE042
:10D7700053EC192B51EC100B16F038F953EC182B15
:10D7800016F034F9C4E900010120C8E715F04AFC9D
:10D7900041EC100BBD4208D053EC1B2B51EC100B8D
:10D7A00015F040FCC4E900010BE053EC192B51ECDF
:10D7B000100B15F037FC53EC182B15F033FCC4E9B3
:10D7C00000014FF0FF30AAE7C348A84279DB9DED86
:10D7D000120B51EC100B02F039F941EC180B9FEDD4
:10D7E000C00B53EC102B15F0F5FE9FEDBF1B53EC57
:10D7F000112B15F017FC15F029FE074615F083FED6
:10D8000041EC190B53EC1A2B15F0E4FE53EC182BDA
:10D8100016F014F841EC180B53EC1B2B51EC190BC0
:10D8200015F0D8FEDFF8C8A241EC100B4FEA1558EE
:10D830000125FA4453EC102B51EC180B16F0D6F8D6
:10D84000032DC4E900013DD0C1F30A5005EB451199
:10D85000A8EB00001139814234DA0AEB051BB0EE67
:10D8600048AA9BED000BF0EE68AA53EC102B51EC8C
:10D87000190B15F0AFFE41EC1B0B51EC1A0B53ECDE
:10D880001B2B16F0B3F841EC180B51EC1A0B53ECB0
:10D89000182B16F0ABF853EC1B2B16F0A7F89BEDEA
:10D8A000020B41EC1A0B53EC102B51EC190B15F039
:10D8B00091FE53EC1A2B16F099F841EC100B6D1CED
:10D8C000B8E70EE0002EA8BF3846BFF628AF94EDAB
:10D8D000000B51EC100B15F099FBC4E900017842E4
:10D8E0001DE7C6F3130040F4801EC6F30A50A0F2F1
:10D8F000F530471100F01F05C5F12000DDF848B0F4
:10D9000008900020069007900520EC467949002DEC
:10D9100007EB0002794408BF51F8221009D051F8F2
:10D92000223001EB8201AB404A68089922FA01F1EA
:10D930001943A1FB0E26A1FB0B131A449A4234BFD4
:10D940000123002303EB06080CEB8003D3E901A6B7
:10D950000E448E4234BF0121002192448A4411B109
:10D96000924502D903E0924501D2012100E0002155
:10D97000C3E901A641444CF82010011EA0F10100AA
:10D98000C4DC029800F10050850F0298DDE90367BE
:10D990008000DDF8148015F0B6FD41EC1A0B30461E
:10D9A00015F0C8FD9FED541B53EC112B15F012FE22
:10D9B00041EC1B0B384615F0BDFD9FED511B53ECA0
:10D9C000112B15F007FE41EC180B404615F0B2FD87
:10D9D0009FED4D1B53EC112B15F0FCFD41EC190B89
:10D9E00051EC180B53EC192B15F01CFB53EC1B2BB3
:10D9F00015F018FB53EC1A2B15F014FBCDE90801B8
:10DA0000002008909DED080B53EC1A2B51EC100BE5
:10DA100015F0ECFF53EC1B2B15F0E8FF53EC182B23
:10DA200015F0E4FF53EC192B15F008FF9FED381BA0
:10DA300053EC112B15F0CEFD9FED370B41EC180B7D
:10DA400053EC102B9DED080B51EC100B15F0C2FDA3
:10DA500053EC182B15F0E6FA9FED310B41EC180B47
:10DA600053EC102B9DED080B51EC100B15F0B2FD93
:10DA700053EC182B15F0D6FA41EC100B139810F05C
:10DA8000004F06D06D4251EC100B15F0BFFA41EC7F
:10DA9000100B284684ED000B41E60000000000005A
:10DAA0000000000000000000FB21E93F7CD902409B
:10DAB00000004054FB21F93F3163621A61B4D03D4C
:10DAC000FB21F93F000000000000601A61B4D03D66
:10DAD0007370032E8A19A33BFB213941000000001B
